:020000040800F2
:1000000028CB002045010008219D00084529000853
:10001000F79C00082D120008BBDF0008000000005C
:1000200000000000000000000000000069BA0008A5
:10003000551400080000000025B20008F9BC0008B3
:100040005F0100085F0100085F010008DDB60008DD
:100050005F0100085F010008791700085F010008D0
:1000600079220008ED220008412300085F01000802
:100070005F0100085F0100085F0100085F010008E0
:100080005F0100085F0100085F0100085F010008D0
:100090005F0100085F0100085F0100085F010008C0
:1000A0005F0100085F0100085F0100085F010008B0
:1000B0005DBD00081DBE0008BDC200085F0100084C
:1000C0005F0100085F0100085F0100085F01000890
:1000D0005F01000811D8000881D80008D5D80008B1
:1000E000C51700085F0100085F0100085F010008F4
:1000F0005F0100085F0100085F0100085F01000860
:100100005F0100085F01000865C400085F01000886
:100110005F0100085F0100085F010008D1C400080A
:100120005F0100085F0100085F0100085F0100082F
:10013000DFF80CD000F0BAFD0048004749FB00088A
:1001400028CB00200648804706480047FEE7FEE728
:10015000FEE7FEE7FEE7FEE7FEE7FEE7FEE7FEE777
:10016000FDBC000831010008A0F14101192900D8A7
:100170002030704740EA01039B0703D009E008C91B
:10018000121F08C0042AFAD203E011F8013B00F85C
:10019000013B521EF9D27047D2B201E000F8012BA8
:1001A000491EFBD270470022F6E710B513460A46F7
:1001B00004461946FFF7F0FF204610BD30B505464E
:1001C0002A460B4612F8010B13F8014B08B1A04266
:1001D000F8D01CB1002802D06D1CF1E7284630BDD4
:1001E000CAB2401E10F8011F8A4202D00029F9D17C
:1001F00000207047421C10F8011B0029FBD1801A17
:10020000704710B5002200E0521C835C8C5CA34256
:1002100001D1002BF8D1D8B2E1B2401A10BD10B50F
:10022000044600E0401C0378002BFBD100E0401C9A
:10023000521E04D311F8013B0370002BF7D10021AB
:100240000170204610BD034611F8012B00F8012B68
:10025000002AF9D11846704730B5054600200346FC
:1002600000E05B1C934205D2EC5CC85C201A01D113
:10027000002CF6D130BD70B506460DF06DFF046858
:1002800005460A220021304600F0C4FB2C6070BDF8
:10029000F0B480EA0102D40F4200B2EB410F02D267
:1002A0000246084611464A0042D0C30DDDB2C1F3F2
:1002B000C752AD1A202D35DAC1F3160141F4000200
:1002C00004B15242C5F1200602FA06F12A41104457
:1002D000B3EBD05F23D0C4B1012DA0EBC35009DC38
:1002E000F0BC4FF0004202EAC352DBB200F500005E
:1002F00000F0D1BB400000F1807000EBC350A0F1D2
:10030000807040EAD170490009E0490841EAC071B3
:10031000A0EBC35000F50000400800EBC350F0BC58
:1003200000F0B0BB6142012202EB4101001BF6E785
:10033000F0BC704781F00041AAE780F00040A7E7D9
:1003400080EA010210B502F00043400022D04A00CA
:100350001FD0010E01EB1261C0F35600C2F356022A
:1003600040F4000042F40002A0FB022000047F39A8
:10037000140400D0401C50EA124001D44000491E31
:10038000C2B20C0604EBD010401C4008802A02D0F8
:1003900003E0002010BD20F00100002900DA002059
:1003A000184310BD30B480EA010202F0004530F07D
:1003B000004221F0004013D090B1C30DD40DC2F320
:1003C0001601C0F31600E41A41F4000140F40002E3
:1003D0007D34914201D3641C00E04900002C02DA14
:1003E00030BC002070474FF400000023914201D33D
:1003F000891A034340084FEA4101F7D151B19142B4
:1004000002D14FF0004105E002D24FF0010101E0BE
:100410006FF0010103EBC450284430BC00F032BB44
:100420002DE9FE4F804681EA0300C00F0C46009084
:1004300021F0004123F00045B8EB0200A94105D2AC
:100440004046214690461C460B46024623F000409B
:10045000104347D0270DC7F30A00C3F30A51029097
:10046000401A019040286BDAC3F3130040F4801B5C
:100470000098924620B10023D2EB030A63EB0B0BEA
:1004800001985946C0F14002504600F092FA0646E3
:100490000D4650465946019A00F0AAFA10EB0800A2
:1004A0006141002487EA115284EAE7731A4340D07D
:1004B000009A62B3019A012A4FEA075215DC001B29
:1004C00061EB02014FF0004202EA0752CDE900421F
:1004D000001C41F5801132462B4600F019FB03B099
:1004E000BDE8F08F40462146F9E7001B61EB0201B1
:1004F000001C41F5801300185B412018A2F500177D
:1005000047EB030140EAD570B6196D4111E06D0863
:100510004FEA360645EAC0754FEA0752001B61EB09
:100520000201001C41F5801149084FEA3000001912
:10053000514132462B4603B0BDE8F04F00F0D9BA26
:100540000098012240000023D0EB020263EBE0732D
:10055000009821464FEAE074B8EB000061EB04011B
:10056000E9E783F000435BE781F0004158E72DE9BC
:10057000FE4F81EA030404F0004421F0004100949E
:100580004FF0000B23F0004350EA01045ED052EA22
:1005900003045BD0C3F30A54C1F30A552C44A4F2FC
:1005A000F3340194A0FB0254C1F3130141F4801110
:1005B000C3F3130343F4801301FB024400FB034E17
:1005C000840A970A44EA815447EA8357A4FB0768E0
:1005D00002958D0A05FB07854FEA932C04FB0C540A
:1005E0002705029D4FEA065847EA1637B5EB08057E
:1005F0006EEB070C870E920E47EA811742EA8312D0
:10060000A7FB0201B6EB0B0164EB00042B0D43EAE0
:100610000C335E1844EB1C50DA465146E7FB0201EE
:10062000C5F313044FEA0B3343EA14534FEA043281
:10063000019C43EA0603A4F10C040294009CCDE95A
:1006400000B400F065FA03B0BDE8F08F0020014669
:10065000F9E72DE9F04D81EA030404F0004B21F0A5
:10066000004514464FF0000A23F0004150EA05020D
:1006700020D054EA01021DD0C5F30A570246C5F343
:100680001303C1F31300C1F30A5640F4801543F479
:100690008013A7EB0608101BD64608F2FD3873EB53
:1006A000050002D308F1010801E092185B41B8F19E
:1006B000000F03DA00200146BDE8F08D00204FF462
:1006C0008011064684460EE0171B73EB050705D321
:1006D000121B63EB050306434CEA010C49084FEA81
:1006E000300092185B4150EA0107EDD152EA030055
:1006F00012D082EA040083EA0501084305D0101BEA
:10070000AB4106D20122002306E000224FF0004355
:1007100002E06FF0010253101AEB06004CEB085197
:1007200010EB0A0041EB0B01BDE8F04D00F0E1B920
:10073000C10F80EAE0700844CA079623002100F048
:10074000AAB996230022114600F0A5B90EB5C10F33
:1007500080EAE0700844CA07002140F233438DE884
:100760000E000A460B4600F0D3F903B000BD0EB5EB
:1007700040F2334102910021CDE900110A460B46B7
:1007800000F0C6F903B000BD00F0004220F00040C8
:10079000C10DC0F3160040F400007F2901DA0020EB
:1007A0007047962903DCC1F19601C84001E09639F3
:1007B0008840002AF4D04042704720F00040C10D2C
:1007C000C0F3160040F400007F2901DA00207047D2
:1007D000962903DCC1F19601C840704796398840DC
:1007E000704770B5C1F30A5201F000450024C1F30F
:1007F000130140F2FF3341F480119A4201DA0020E4
:1008000070BD40F233439A42A2F2334203DC5242BB
:1008100000F0DEF800E090402C43F1D0404270BD83
:10082000C1F30A5210B5C1F3130140F2FF3341F492
:1008300080119A4201DA002010BD40F233439A42FF
:10084000A2F2334203DC524200F0C2F810BD9040E5
:1008500010BD00F0004230F000400AD0C10D01F59B
:100860006071C0F3160042EA0151C208400711430B
:10087000704700200146704730B5041E71F1000436
:1008800004DB4FF00044404264EB0101141E73F19D
:10089000000405DB1C464FF00043524263EB0403A7
:1008A0008B4208BF824230BD30B5041E71F1000496
:1008B00004DB4FF00044404264EB0101141E73F16D
:1008C000000405DB1C464FF00043524263EB040377
:1008D000994208BF904230BD01F0004330B421F08E
:1008E000004150EA010206D00A0DA2F56072C1F380
:1008F0001301002A02DC30BC00207047440F44EA98
:10090000C104C100E01830BC00EBC25000F0BAB81E
:10091000002801DBC0F10040002901DBC1F10041EA
:100920008842704730B50B46014600202022012442
:1009300009E021FA02F59D4205D303FA02F5491BAD
:1009400004FA02F52844151EA2F10102F1DC30BDC3
:100950002DE9F05F0546002092469B4688460646F4
:10096000814640241BE0284641464746224600F087
:100970002FF853465A46C01A914110D311461846D3
:10098000224600F016F82D1A67EB01084F46224662
:100990000120002100F00DF817EB00094E41201E48
:1009A000A4F10104DFDC484631462A464346BDE84F
:1009B000F09F202A04DB203A00FA02F10020704761
:1009C0009140C2F1200320FA03F31943904070478D
:1009D000202A04DB203A21FA02F00021704721FA94
:1009E00002F3D040C2F120029140084319467047FB
:1009F000202A06DBCB17203A41FA02F043EAE073E3
:100A000006E041FA02F3D040C2F1200291400843CF
:100A1000194670472DE9F04791460F468046044637
:100A2000002614F8015B2DB100F052F90068405D1A
:100A3000C007F6D12B2D02D02D2D18D0641E4A46AA
:100A40003946204600F048F927B13968A14201D162
:100A5000C7F8008071054FF002040BD54042002812
:100A600003DD0DF079FB0460A007BDE8F08746F4D4
:100A70008066E4E70028F8DA0DF06EFB04606FF0A2
:100A80000040F2E70029A8BF7047401C490008BF9A
:100A900020F00100704710B4B0FA80FC00FA0CF0AE
:100AA00050EA010404BF10BC704749B1CCF12004E6
:100AB00021FA04F411FA0CF118BF01212143084373
:100AC000A3EB0C01CB1D4FEA00614FEA102042BF9F
:100AD000002010BC704700EBC35010440029A4BF95
:100AE00010BC7047401C490008BF20F0010010BC3A
:100AF000704710B5141E73F1000408DA401C41F170
:100B0000000192185B411A4301D120F0010010BD91
:100B10002DE9F04D92469B4611B1B1FA81F202E007
:100B2000B0FA80F220329046FFF743FF04460F46AA
:100B300040EA0A0041EA0B0153465A46084313D0E3
:100B4000114653EA010019D0C8F140025046FFF7A0
:100B50003FFF05460E46504659464246FFF729FFDD
:100B6000084305D0012004E020463946BDE8F08D59
:100B70000020054346EAE0762C4337430A98630594
:100B8000E40AA0EB08000022FD0A44EA47540A30B8
:100B900002D500200146E9E7010510196941DDE9A8
:100BA000084500196941BDE8F04DA2E770B521F094
:100BB000004303430CD0C1F30A550024D5EB0405D0
:100BC00064EB0403D617AD1AB34102DB00200146E3
:100BD00070BD201841EB025170BD2DE9F04D00238E
:100BE0001A461B1A8A4103DB00200146BDE8F08D3E
:100BF000C1F30A52C1F3130141F480154FF0000B09
:100C0000D10702D100186D41521E0027044640F260
:100C1000FF11384601EB620A3E468046024600203C
:100C20004FF48011FFF7D4FEC2197141BB1846EB97
:100C30000100B4EB030C75EB000C04D3E41A65EB74
:100C4000000517460E46241908F101006D41804643
:100C50003428E3DDF91946EB0600091BA84103D24D
:100C60004FF0FF32134601E0002213461BEB070052
:100C700046EB0A51BDE8F04DFFF73BBFC1F30A5206
:100C8000C1F3130140F2FF3341F480119A4202DABA
:100C900000200146704740F233439A42A2F23342A9
:100CA00002DC5242FFF794BEFFF783BE064C074DAD
:100CB00006E0E06840F0010394E80700984710342C
:100CC000AC42F6D3FFF738FABC2C0308DC2C03083F
:100CD000004870479C2903082DE9F05F82460078A0
:100CE000002715468B460AF10104B946302801D089
:100CF0009DB113E014F8010B0127782803D0582880
:100D000001D045B10AE00DB1102D07D10027102503
:100D100014F8010B02E0082500E00A250026B04681
:100D20000EE005FB080005FB06F1012701EB10466C
:100D30001FFA80F8B6F5803F00D3B94614F8010BCE
:100D4000294600F018F80028EBDABBF1000F05D0B7
:100D50000FB1641E00E05446CBF80040B9F1000F1B
:100D600006D00DF0F9F902210160C81EBDE8F09F20
:100D700048EA0640FAE73A2800D2303820F020024C
:100D8000412A01D3A2F13700884201D34FF0FF304E
:100D9000704770B58C1810F8015B15F0070301D18E
:100DA00010F8013B2A1106D110F8012B03E010F8CE
:100DB000016B01F8016B5B1EF9D12B0705D40023F1
:100DC000521E0DD401F8013BFAE710F8013BCB1A93
:100DD000921C03E013F8015B01F8015B521EF9D588
:100DE000A142D8D3002070BD21B1826842F0010237
:100DF000826003E0826822F0010282607047000096
:100E000010B504461248844208D1012140150AF069
:100E100047FA002160150AF043FA17E00D488442B2
:100E200008D1012100150AF03BFA002120150AF033
:100E300037FA0BE00848844208D10121C8030AF0C0
:100E40002FFA00214FF400400AF02AFA10BD0000EA
:100E50000024014000280140003C014001460020E0
:100E60008A6802F004020AB1012000E00020704705
:100E70000146C86C80B270470246002013680B40E0
:100E80000BB1012000E000207047014600208A6875
:100E900002F008020AB1012000E0002070470000C3
:100EA00030B502460020002350680F4C20400D79D9
:100EB0000C6844EA05242043506090680B4C2040A5
:100EC000D1E902542C434D7944EA45042043906013
:100ED000D06A20F470000C7C641EE4B2234340EA24
:100EE0000350D06230BD0000FFFEF0FFFDF7F1FFC0
:100EF000F0B504460D4600200021092D11DDE06803
:100F0000A5F10A0606EB4607072606FA07F188430D
:100F1000A5F10A0606EB460603FA06F10843E0606F
:100F20000CE0206905EB4507072606FA07F1884320
:100F300005EB450603FA06F108432061072A0FDA9C
:100F4000606B561E06EB86071F2606FA07F18843DC
:100F5000561E06EB860605FA06F10843606322E09A
:100F60000D2A0FDA206BD61F06EB86071F2606FA1E
:100F700007F18843D61F06EB860605FA06F10843FB
:100F8000206310E0E06AA2F10D0606EB86071F263B
:100F900006FA07F18843A2F10D0606EB860605FA6C
:100FA00006F10843E062F0BD816841F0080181600C
:100FB000704721B1826842F4A002826003E0826837
:100FC00022F4A00282607047816841F004018160D0
:100FD000704710B501F02EFD10BD70B506460C46E9
:100FE000154608E03046721C96B200F01DF804F871
:100FF000010B681E85B2002DF4D170BD2DE9F041C2
:1010000007460C460026002509E036023919491B1F
:10101000491E88B200F008F80644681CC5B2A54213
:10102000F3DB3046BDE8F08170B50446002601F0E0
:10103000B5FD2546E11704EB11610912A02202EB70
:101040004101C8B201F070FD01F0F4FDE11704EBBD
:1010500011610912A4EB0121C8B201F065FD01F094
:10106000E9FD01F09BFDA12001F05EFD01F0E2FD34
:10107000002001F021FD064601F0B6FD304670BDAE
:1010800070B505460C46164606E02178284600F065
:101090001EF8681C85B2641C3000A6F101018EB2F6
:1010A000F3D170BD2DE9F04105460E4617460024E8
:1010B00009E0E20026FA02F2D1B22A1990B200F059
:1010C00006F8601CC4B2BC42F3DBBDE8F08170B529
:1010D00004460E4601F062FD2546E11704EB11615E
:1010E0000912A02202EB4101C8B201F01DFD01F07E
:1010F000A1FDE11704EB11610912A4EB0121C8B2B3
:1011000001F012FD01F096FD304601F00DFD01F0F9
:1011100091FD01F069FD0A200EF016FA70BD000085
:1011200000B587B001214FF401700AF0A9F84FF41F
:1011300000400AF079F80220ADF8040000208DF894
:10114000070001A9174801F0B1FA1748FFF758FE48
:10115000002002908DF80C008DF80D004FF46020F7
:1011600004900020059001208DF8180002A90E4877
:10117000FFF796FE01210C48FFF736FE0A48FFF7FD
:1011800013FF00BF0848FFF780FE0028FAD1064889
:10119000FFF71AFF00BF0448FFF760FE0028FAD1EE
:1011A00007B000BD000801400024014008B501213E
:1011B00008200AF065F84FF48070ADF800001020A8
:1011C0008DF8030003208DF802006946044801F001
:1011D0006DFA4FF48071024801F04EFB08BD00002B
:1011E000000C014010B501200AF06AF800200AF056
:1011F00067F810BD08B50146002000900348009034
:101200000098084400900098008808BD006C0040D9
:1012100008B500220092044A0092009A024400920B
:10122000009A116008BD0000006C004000BFFEE79E
:101230000FB410B5CCB002AC4FA801904FF494712C
:1012400002A8019B4E9A0CF04FFF002001900EA1C6
:1012500010480CF0B4FE0BE014F8011B0D480CF024
:10126000A8FE00BF40210B480CF0D6FD0028F9D0A5
:1012700020780028F0D108A106480CF0A0FE4CB060
:1012800010BC5DF814FB00005B4C4F475D202F3E07
:1012900020000000004C00400D0A000010B50024A2
:1012A0001548406820F4704013494860084640687B
:1012B00040F40040486004E0601CC4B201200EF01D
:1012C00069F90E48006808B1642CF5DB642C01DB79
:1012D000012010BD002404E0601CC4B201200EF007
:1012E00059F90648006808B9642CF5DB642C01DB69
:1012F0000120EEE70020ECE7002001402C01244211
:1013000008B50121080209F0BBFF4FF40060ADF8F9
:10131000000010208DF8030003208DF802006946BC
:10132000054801F0C3F94FF40061034801F0A6FA43
:1013300000F070F808BD00000020014010B5002446
:1013400004E0601CC4B201200EF024F90D480068CE
:1013500008B1642CF5DB002404E0601CC4B2012059
:101360000EF018F90748006808B9642CF5DB28204E
:101370000EF010F90348006808B1012010BD0020EC
:10138000FCE700002C01244270B50024002506E093
:101390006006040EFFF7D2FF0443681CC5B2082D97
:1013A000F6DB204670BD2DE9FC4105460E4617468A
:1013B000984600F02FF8FFF771FF30BB002405E0DE
:1013C000FFF7E2FF0DF80400601CC4B2052CF7DB48
:1013D0009DF800009DF8011008449DF80210084493
:1013E0009DF8031008449DF80410884210D19DF820
:1013F000000038709DF8010088F800009DF8020098
:1014000028709DF80300307002E00120BDE8FC81E7
:101410000020FBE710B50C48406820F470400A49F2
:1014200048600846406840F4405048600020074942
:10143000086014200EF088F801200549C1F8AC01BD
:101440001E200EF0A7F810BD00200140AC01244280
:10145000000024427047000010B580210348FEF7C9
:10146000A2FE00200249088010BD000060BF0020DD
:101470004403002070B50546002400BF00F062F967
:1014800080B90DA10E48FEF799FE044654B13A21E9
:101490002046FEF7A5FE044614B1641C204670BD2C
:1014A0000020FCE705200EF04FF82800A5F101010F
:1014B0008DB2E3D100BFF2E74950442C0000000098
:1014C00060BF002010B5FFF7C7FF33A134480CF010
:1014D00076FD03E04FF4FA700EF036F831A132A039
:1014E00000F0E2F80028F5D131A12D480CF067FD9D
:1014F0002CA132A000F0D8F84FF4FA700EF024F8C6
:1015000028A131A000F0D0F84FF4FA700EF01CF8CA
:1015100031A123480CF053FD03E04FF4FA700EF0B4
:1015200013F820A12FA000F0BFF80028F5D131A1B9
:101530001B480CF044FD03E04FF4FA700EF004F881
:1015400018A130A000F0B0F80028F5D131A114485E
:101550000CF035FD03E04FF4FA700DF0F5FF30A10B
:1015600031A000F0A1F80028F5D10120354908701C
:1015700035A10B480CF023FD03E04FF4FA700DF099
:10158000E3FF37A138A000F08FF80028F5D140A183
:1015900003480CF014FD10BD302E2041540D0A00FC
:1015A000004C00404F4B000041540D0A0000000069
:1015B000312E205253540D0A0000000041542B528A
:1015C00053540D0A0000000041542B434950434C32
:1015D0004F53450D0A000000322E2043574D4F4413
:1015E000450D0A0041542B43574D4F44453D310DA5
:1015F0000A000000342E2041542B435744484350E6
:101600000D0A000041542B4357444843503D312CB0
:10161000310D0A00352E2043574A41500D0A000073
:10162000474F54204950000041542B43574A4150E2
:101630003D2259454A222C226162633838383838B5
:10164000220D0A00DA020020362E20286D696E690C
:101650006170702943495053544152540D0A00009F
:10166000434F4E4E4543540041542B43495053542D
:101670004152543D22544350222C223132302E37D5
:10168000372E37392E3836222C313838330D0A00B0
:10169000362E204553503832363620496E69742034
:1016A0004F4B0D0A000000002DE9F04104460D46A5
:1016B000C8262046FEF79EFD87B23A4621460D48D1
:1016C0000CF0BFFC0FE000F03DF848B929460A488D
:1016D000FEF774FD20B1FFF7BFFE0020BDE8F081EA
:1016E0000A200DF031FF3000A6F10101CEB2EAD19F
:1016F0000120F3E70044004060BF002030B589B00E
:1017000004460D46FFF7A8FE2A4608A101A80CF0E2
:10171000D7FC0AA101A8FFF7C7FF20B92A46214636
:1017200007480CF08EFC09B030BD000041542B433B
:10173000495053454E443D25640D0A003E000000CB
:10174000004400400A48008808B901207047084852
:10175000008808490988884203D10020044908808C
:10176000F4E703480088034908800120EEE7000001
:10177000440300204603002010B50A200DF0E4FECB
:1017800001210D4801F066F8012810D10B480078BE
:10179000012802D10020094908700948007818B9C9
:1017A00001200749087002E0002005490870012067
:1017B00000F06AFE10BD000000080140110000208A
:1017C000220000202DE9F041FDA0FFF731FD0A20A5
:1017D0000DF0BAFE4FF4806000F05CFE00287DD072
:1017E000FB480078401CFA49087008460178F9A0C7
:1017F000FFF71EFDF64800780A2802DB0020F449B6
:1018000008704FF4806000F03FFEF74890F8200029
:1018100040F08000F44981F820001631A1F10A005F
:101820000BF04CFE80B3F049B1F92C00FEF780FFBD
:101830000646ED498889FEF784FF0746EA48416A73
:101840003846FEF77DFD05463146FEF721FD04468C
:10185000FEF7B3FFE4498881B1F92E00FEF768FF77
:101860000646E149C88AFEF76CFF0746DE48816AF2
:101870003846FEF765FD05463146FEF709FD04468C
:10188000FEF79BFFD849C882D748C28A8189D7A072
:10189000FFF7CEFCD44890F8200000F0800000282C
:1018A0009DD0DB48006800287EDBD9480068052809
:1018B0007ADC0120D7490870CB488089002819DDDF
:1018C000C9488089302815DAC748C08A602811DDE8
:1018D000C548C08A90280DDACD4800E010E20068C3
:1018E000401ECB4908600846006800285CDA0520E5
:1018F000086059E0BC488089C02817DDBA48808953
:10190000F02813DAB848C08A60280FDDB648C08ACC
:1019100090280BDABE480068401CBD4908600846A4
:101920000068052840DD002008603DE0AE48808961
:10193000382839DDAC488089B82835DAAA48C08A09
:10194000602831DDA848C08AE0282DDAB048006858
:1019500018B90620AE49086026E0AD4800680128A5
:1019600003D10720AA4908601EE0A94800680228A0
:1019700003D10820A649086016E0A548006803289E
:1019800003D10920A24908600EE0A148006804289C
:1019900003D10A209E49086006E09D48006805289A
:1019A00002D10B209A49086099480068082873D131
:1019B0008D488089A02814DD8B488089B42810DAEE
:1019C0008948C08A40280CDD8748C08A582808DA30
:1019D0004FF07E5190480068FEF75AFC8E4908602F
:1019E0008EE181488089B42814DD7F488089C82829
:1019F00010DA7D48C08A40280CDD7B48C08A582810
:101A000008DA4FF07E5184480068FEF793FC824963
:101A1000086075E174488089A02811DD72488089CA
:101A2000B4280DDA7048C08A602809DD6E48C08A83
:101A3000782805DA79480078401C784908705FE119
:101A400069488089B42811DD67488089C8280DDA83
:101A50006548C08A602809DD6348C08A782805DAAD
:101A60006E480078401E6D490870F2E35E48808938
:101A7000A02812DD5C488089B4280EDA5A48C08A52
:101A800080280ADD5848C08A982806DA6448007819
:101A9000401C63490870DCE35AE053488089B4284D
:101AA00011DD51488089C8280DDA4F48C08A802846
:101AB00009DD4D48C08A982805DA59480078401E4B
:101AC00057490870C5E348488089A02811DD464879
:101AD0008089B4280DDA4448C08AA02809DD42482C
:101AE000C08AB82805DA4F480078401C4D49087074
:101AF000AFE33D488089B42811DD3B488089C82880
:101B00000DDA3948C08AA02809DD3748C08AB828CC
:101B100005DA44480078401E4249087099E332488B
:101B2000808900288BDD30488089302887DA2E486C
:101B3000C08AB0F5887F98DD2B48C08AB0F5A07FB9
:101B400093DA01203349087002203149086080E3AC
:101B50002F48006809286ED123488089A02816DD07
:101B600021488089C02812DA1F48C08A40280EDD2B
:101B70001D48C08A60280ADA2B48007818B901206D
:101B80002949087065E300202749087061E3164879
:101B90008089A0285BDD14488089C02857DA124864
:101BA000C08A602853DD1048C08A80284FDA1F4859
:101BB0000078F8BB01201D490870C3211C483BE098
:101BC000BDF8C8EBD6D0B6CFB3C9B9A600000000A7
:101BD0008D020020BDF8C8EBD6D0B6CFB4CECAFD7A
:101BE000A3BA25640D0A0000E0020020D6D0B6CFCB
:101BF000B3C9B9A6A3ACB4A5C3FED7F8B1EACEAABF
:101C0000A3BA783A25642C793A25640D0A000000BD
:101C1000CC020020D3010020140000201800002076
:101C2000190000201C000020220000201F000020BE
:101C30000004004003E064E00AF084FD09E30020B2
:101C4000FE490870B921FE480AF07CFD01E3FD4819
:101C50008089A0281BDDFB488089C02817DAF94855
:101C6000C08A802813DDF748C08AA0280FDAF6481A
:101C70000078012805D10020F3490870F349086075
:101C8000E7E20120F0490870F0490860E1E2ED4820
:101C90008089A0281CDDEB488089C02818DAE94833
:101CA000C08AA02814DDE748C08AC02810DAE848B6
:101CB000007830B90120E6490870E4490C31086029
:101CC000C7E20020E2490870E0490C310860C0E238
:101CD000DC4880890028B1DDDA4880893028ADDA17
:101CE000D848C08AB0F5887FA8DDD648C08AB0F54C
:101CF000A07FA3DA0120D74908700320D6490860E5
:101D0000A7E2D5480068072871D1CE4880891828F5
:101D100018DDCC488089382814DACA48C08A1028CF
:101D200010DDC848C08A30280CDACC480078022878
:101D300084DB0120CA490870C8480078401EC749A2
:101D4000087086E2BF488089B02818DDBD488089C8
:101D5000D02814DABB48C08A102810DDB948C08AE0
:101D600030280CDABD4800781D2889DC0120BC49E8
:101D70000870BA480078401CB849087069E2B14858
:101D800080895A281ADDAF488089962816DAAD482E
:101D9000C08AD82812DDAB48C08AB0F58A7F0DDA38
:101DA0000120AF494870AF48007818B90120AD490B
:101DB00008704EE20020AB4908704AE2A1488089D1
:101DC000002884DD9F488089302899DA9D48C08AA0
:101DD000B0F5887F94DD9B48C08AB0F5A07F8FDA8C
:101DE00001209C4908709C49086032E2FFE79A484C
:101DF00000680A2868D19348808908280FDD914837
:101E0000808970280BDA8F48C08A5C2807DD8D48EE
:101E1000C08A982803DA00209349087019E289489B
:101E2000808980280FDD87488089E8280BDA85487B
:101E3000C08A5C2807DD8348C08A982803DA01201D
:101E40008949087005E27F48808908280FDD7D48B0
:101E5000808970280BDA7B48C08AA82807DD79487A
:101E6000C08AE42803DA02207F490870F1E175484E
:101E7000808980280FDD73488089E8280BDA714853
:101E8000C08AA82807DD6F48C08AE42803DA032047
:101E900075490870DDE16B488089002889DD694853
:101EA0008089302885DA6748C08AB0F5887F84DD6C
:101EB0006448C08AB0F5A07F97DA012065490870B0
:101EC000042065490860C4E16348006806287DD1A4
:101ED0005C48808910287ADD5A488089E42876DABF
:101EE0005848C08A102872DD5648C08AB0F5887FED
:101EF0006DDA5E480068002869DD002000BF2CE133
:101F000050498989B4296EDA4E49C98A10296ADD97
:101F10004C49C98AF82966DA4A49898910292DDD90
:101F200048498989302929DA4649C98A00EB800263
:101F3000102303EB0212914220DD4249C98A00EBD3
:101F40008002262303EB0212914217DA00EB4001D4
:101F5000474A52F82110491C00EB4002444B43F819
:101F6000221000EB40011A4652F82110172904DD17
:101F7000002100EB400243F82210EDE0314989894D
:101F8000102931DD2F49898930292DDA2D49C98A57
:101F900000EB8002422303EB0212914224DD294927
:101FA000C98A00EB8002582303EB021291421BDA2C
:101FB00000EB40012E4A52F82110491E00EB40026E
:101FC0002B4B43F8221000EB400101E025E1CAE071
:101FD0001A4652F82110002904DA172100EB4002BA
:101FE00043F82210B8E088E01649898938294EDD87
:101FF0001449898958294ADA1249C98A00EB8002B2
:10200000102303EB0212914241DD0E49C98A00EB15
:102010008002262303EB0212914238DA00EB4001E2
:10202000134A02EB81014968491C00EB4002104B46
:1020300003EB8202516000EB40011BE01F00002017
:1020400000040040E00200201E0000209481214294
:1020500021000020D3010020CC020020D10100206B
:10206000D0020020D201002010000020D401002066
:102070000C0500201A4602EB810149683B296BDD03
:10208000002100EB400203EB8202516064E07449DE
:102090008989382960DD7249898958295CDA704953
:1020A000C98A00EB8002422303EB0212914253DD06
:1020B0006B49C98A00EB8002582303EB021291425C
:1020C0004ADA00EB4001674A02EB81014968491E88
:1020D00000EB4002634B03EB8202516000EB4001D6
:1020E0001A4602EB81014968002935DA3B2100EBF1
:1020F000400203EB820251602EE059498989B429DC
:102100002ADD5749C98A00EB80021C2303EB021227
:10211000914221DD5249C98A00EB80024C2303EB36
:102120000212914218DA01214F4A115400EB40018A
:102130004C4A02EB8101896839B9012100EB400268
:10214000484B03EB8202916006E0002100EB400265
:10215000444B03EB82029160401C44490968884269
:10216000FFF6CEAE75E03E48C08AB0F5887F70DDE0
:102170003B48C08AB0F5A07F6BDA3948808978285F
:1021800028DD37488089A82824DA38480068401EAE
:102190003649086008460068002801DA0020086017
:1021A00001203149C87000203049096801EB410124
:1021B0002C4A42F821002D49096801EB410102EB4C
:1021C000810148602949096801EB410102EB810165
:1021D00088603EE022488089B8280FDD2048808949
:1021E000E8280BDA21480068401C204908600846AE
:1021F000006803282DDD032008602AE01848808944
:10220000002826DD16488089302822DA0120184966
:1022100008700020174908601BE0164800680B286A
:1022200017D10F488089002813DD0D488089302898
:102230000FDA0B48C08AB0F5887F0ADD0848C08AEB
:10224000B0F5A07F05DA0120094908700520094989
:1022500008604FF4806000F017F9BDE8F0810000DD
:10226000E00200200C050020D5010020D401002050
:10227000D3010020CC02002010B50A200DF064F933
:102280001021094800F0E6FA48B108480078022811
:1022900005D107A0FEF7CCFF0120134908700420E8
:1022A00000F0F2F810BD000000080140100000200E
:1022B00023232323232323232323232323232323EE
:1022C0002323BEAFB1A8A3BAD3D0C8CBB4B3C8EB55
:1022D00023232323232323232323232323232323CE
:1022E00023230D0A000000001100002010B50A2071
:1022F0000DF02AF908210F4800F0ACFAA8B90E48F1
:102300000078012807D100200B490870B9210B483B
:102310000AF018FA09E00848007830B901200649A7
:102320000870C32105480AF00DFA082000F0ACF847
:1023300010BD0000001801401F00002000040040F4
:1023400010B50A200DF000F910210D4800F082FAB6
:1023500088B90C480078012805D100200949087087
:102360000949086007E00748007820B901200549BD
:10237000087005490860102000F086F810BD0000C4
:10238000001801401E000020948121420EB500F08B
:10239000A9FC0121084608F073FF0321042000F086
:1023A00065F90820019000208DF808000C208DF8B8
:1023B000090001A800F082F80421084600F056F94F
:1023C0001020019001A800F079F80021084600F0E3
:1023D0004DF90120019008208DF8090001A800F0B6
:1023E0006DF806208DF8000001208DF80100002016
:1023F0008DF8020001208DF80300684607F092FC7A
:1024000009208DF8000001208DF801008DF80200F0
:102410008DF80300684607F085FC0A208DF800005F
:1024200001208DF8010002208DF8020001208DF8B6
:102430000300684607F076FC0EBD0EB509F0FEFA03
:102440000121084608F01CFF0221042000F00EF9CB
:102450000420019000208DF8080008208DF8090064
:1024600001A800F02BF808208DF8000001208DF85D
:10247000010003208DF8020001208DF8030068465A
:1024800007F050FC0EBD00000149086070470000D5
:1024900014040140014600200022074B1B6803EA98
:1024A0000102054B14331B680B4013B10AB1012024
:1024B00000E0002070470000000401400021234993
:1024C0008279002A3AD00A46126803689A430B467A
:1024D0001A600A1D126803689A430B1D1A6002797C
:1024E00011440A6803681A430A60184A08321268DD
:1024F00003689A43154B08331A601A1D1268036863
:102500009A43124B0C331A604279102A0ED11A1FCB
:10251000126803681A430D4B08331A601A1D1268BB
:1025200003681A43094B0C331A600DE007494279DE
:1025300011440A6803681A430A6005E002791144ED
:102540000A6803689A430A6070470000000401406B
:1025500051B18200A2F1C042126842F00103820030
:10256000A2F1C042136009E08200A2F1C0421268E9
:10257000034B1A408300A3F1C0431A607047000068
:10258000FEFF0F00D0E901121143C2681143026936
:1025900011434269114382691143C2691143026ABE
:1025A0001143426A1143826A1143C26A1143026BAA
:1025B000114302689200A2F1C042116081680829AB
:1025C0000BD101688900A1F1C041096841F04002C6
:1025D00001688900A1F1C0410A60416B0968426B42
:1025E000526841EA0211426B926841EA0221426B51
:1025F000928941EA0241426B128A41EA0251426BDE
:10260000127D41EA0261426B926911430268521CD9
:102610009200A2F1C0421160C16AB1F5804F1BD196
:10262000816B0968826B526841EA0211826B926881
:1026300041EA0221826B128A41EA0251826B127DC9
:1026400041EA0261826B9269114302689200A2F131
:10265000C042C2F8041107E06FF0704201688900BF
:10266000A1F1C041C1F804217047000030B500223B
:102670008B071C0F0F2303FA04F20B4B8C1053F83B
:1026800024309343084C8D1044F8253023468C1099
:1026900053F824308C07240F00FA04F42343024C2F
:1026A0008D1044F8253030BD080001402DE9F0417F
:1026B000024600250026002000230024002791F870
:1026C00003C00CF00F0591F803C00CF0100CBCF126
:1026D000000F03D091F802C04CEA050591F800C044
:1026E000BCF1000F31D0146800202BE04FF0010C3A
:1026F0000CFA00F3B1F800C00CEA03069E4220D1A8
:1027000083004FF00F0C0CFA03F7BC4305FA03FCEF
:102710004CEA040491F803C0BCF1280F06D14FF035
:10272000010C0CFA00FCC2F814C00AE091F803C0D6
:10273000BCF1480F05D14FF0010C0CFA00FCC2F8B7
:1027400010C0401C0828D1D31460B1F800C0BCF1FF
:10275000FF0F34DD546800202EE000F1080C4FF02C
:10276000010808FA0CF3B1F800C00CEA03069E4217
:1027700021D183004FF00F0C0CFA03F7BC4305FA8C
:1027800003FC4CEA040491F803C0BCF1280F05D106
:1027900000F1080C08FA0CF8C2F8148091F803C094
:1027A000BCF1480F07D100F1080C4FF0010808FAFE
:1027B0000CF8C2F81080401C0828CED35460BDE845
:1027C000F0810000F0B50A46002300240021002516
:1027D00000F00046B6F1004F02D11D4EF16901E054
:1027E0001B4E7168C0F3034583B200F44016B6F582
:1027F000401F08D121F07061154E766826F0706692
:10280000134F7E6012E000F48016B6F5801F06D1EB
:10281000032606FA05F4A14341F0706106E0460D77
:10282000360103FA06F6B14341F0706122B1460D5C
:10283000360103FA06F6314300F00046B6F1004FC8
:1028400002D1034EF16101E0014E7160F0BD000064
:10285000000001400246002093680B400BB10120AC
:1028600000E00020704702460020D3680B400BB107
:10287000012000E00020704741617047016170470E
:1028800010B504460723012221460948FEF730FB14
:1028900001210748FEF78DFB00BF02210448FEF727
:1028A000EBFA0028F9D00248FEF7E2FA10BD00006A
:1028B000002401402DE9F04107460C460025002682
:1028C00008E03846FFF7DCFF054405200CF03CFE2D
:1028D000701CC6B2A642F4DBB5FBF4F080B2BDE8D2
:1028E000F0812DE9F04107460C460025002608E05E
:1028F000384600F00DF8054405200CF025FE701C4C
:10290000C6B2A642F4DBB5FBF4F080B2BDE8F081BC
:1029100010B504460723012221460948FEF7E8FACC
:1029200001210748FEF745FB00BF02210448FEF7DE
:10293000A3FA0028F9D00248FEF79AFA10BD000069
:102940000024014000BFFEE710B54FF400410C48E1
:10295000FFF794FF4FF400510948FFF78FFF00F095
:102960009BF94FF400410648FFF786FF00F094F909
:102970004FF400510248FFF77FFF00F08DF910BDC2
:10298000000C014010B54FF400410848FFF774FFF8
:102990004FF400510548FFF771FF00F07DF94FF447
:1029A00000410248FFF76AFF10BD0000000C014023
:1029B00010B54FF400410A48FFF760FF00F06CF9D2
:1029C0004FF400510648FFF759FF00F065F94FF446
:1029D00000510348FFF750FF00F05EF910BD000002
:1029E000000C014010B500200F4908600F48006836
:1029F00020F070400D4908600846006840F04050E3
:102A0000086000200A49C1F89C0102200CF0C2FDB8
:102A100001200549086002200CF0BCFD002004499B
:102A2000C1F8980110BD000098812142000C0140BE
:102A30000080214208B50121082008F021FCC020B7
:102A4000ADF8000010208DF8030003208DF802007F
:102A500069460448FFF72AFEC0210248FFF70EFF2F
:102A600008BD0000000C014010B500200F490860AF
:102A70000F48006820F070400D4908600846006863
:102A800040F04050086001200A49C1F89C01022032
:102A90000CF080FD01200549086002200CF07AFD51
:102AA00000200449C1F8980110BD0000988121421E
:102AB000000C01400080214270B5054600241748F3
:102AC000006820F07040154908600846006840F032
:102AD00000400860002616E000201149086002202E
:102AE0000CF058FD01200F49C1F898016006040E52
:102AF0000B487C38006808B1601CC4B201200CF09F
:102B000049FD701CC6B2082EE6DB15B9FFF7ACFF15
:102B100001E0FFF767FF204670BD0000000C014098
:102B2000988121420080214270B50446184800680F
:102B300020F07040164908600846006840F0405098
:102B4000086000201349086000251EE0E00920B15C
:102B500001201049091D086003E000200D49091DEE
:102B600008606006040E02200CF014FD01200949E3
:102B7000086002200CF00EFD00200749C1F8980102
:102B800002200CF007FD681CC5B2082DDEDB70BD0D
:102B9000000C0140988121420080214210B50F486D
:102BA000006820F070400D4908600846006840F059
:102BB0004050086001200A4908600A49C1F898019C
:102BC00004200CF0E7FC00200549086004200CF00C
:102BD000E1FC00200349C1F8980110BD000C014040
:102BE0009C8121420080214210B50F48006820F0EE
:102BF00070400D4908600846006840F04050086089
:102C000000200A4908600A49C1F89C0104200CF020
:102C1000C1FC0120054908600549C1F89C01042058
:102C20000CF0B8FC10BD0000000C0140988121425E
:102C30000080214210B500241448006820F0704044
:102C4000124908600846006840F000400860012012
:102C50000F4908600CF09EFC01200E49C1F8980154
:102C60000CF098FC07E0601CC4B2FA2C03DDFFF7FF
:102C7000BBFF012010BD0648803800680028F2D153
:102C80000349091F086000BFF4E70000000C014081
:102C90009C81214200802142032000BF0100A0F15D
:102CA0000102D0B2FAD170470146CA1701EB927205
:102CB0009210A1EB820292B9642091FBF0F200FB2A
:102CC000121050B94FF4C87091FBF0F200FB1210D3
:102CD00008B9012070470020FCE70120FAE7002036
:102CE000F8E7000008B50121442008F0C9FA1820CF
:102CF000ADF8000048208DF8030003208DF8020095
:102D000069460848FFF7D2FC0120ADF800002820F2
:102D10008DF8030003208DF8020069460248FFF792
:102D2000C5FC08BD001801400008014070B504460C
:102D3000002617480588408845431548808846F690
:102D40000401884216D112488079012812D100204E
:102D50000F4988712A2048812B208881002108464C
:102D600004F0C2F801200A4988712B2048812A20EA
:102D7000888103E00021084604F0B6F806F0B8F9AF
:102D8000002602E003480480761CAE42FAD370BDF0
:102D9000980B00200008006C00B51648808849F2A6
:102DA0004131884211D01348808846F60401884298
:102DB0000BD01048808845F21031884205D00D486C
:102DC000808841F66311884203D1282006F08AF9F1
:102DD0000EE00848808845F21051884204D14FF433
:102DE000205006F07FF903E00021072006F08AF961
:102DF00000BD0000980B002000B51648808849F2FD
:102E00004131884211D01348808846F60401884237
:102E10000BD01048808845F21031884205D00D480B
:102E2000808841F66311884203D1292006F05AF9BF
:102E30000FE00848808845F21051884204D14FF4D1
:102E4000245006F04FF904E040F27311072006F019
:102E500059F900BD980B002010B50446002C66D12E
:102E60006C498871F02008804FF4A07048800846B3
:102E7000808849F2413188420BD06648808846F606
:102E80000401884205D06348808845F210318842A9
:102E90001AD12C205F4908812A2048812B20888163
:102EA0000846808846F60401884205D05948808843
:102EB00045F21031884206D14FF4A0705549088080
:102EC0004FF4F0704880A1E05248808845F21051DC
:102ED000884210D14FF430504E4908814FF42850A9
:102EE00048814FF42C5088814FF4F07008804FF4E3
:102EF000487048808AE04748808841F663118842DC
:102F00000DD12C20434908812B2048812A2088811B
:102F10004FF4F07008804FF44870488076E022202B
:102F20003C49088120204881212088816EE00120D1
:102F3000384988714FF4A0700880F0204880084616
:102F4000808849F24131884205D03248808845F274
:102F50001031884207D12C202E4908812A2048812F
:102F60002B2088813FE02B48808846F60401884268
:102F700007D12C20274908812B2048812A208881CD
:102F800031E02448808845F21051884210D14FF436
:102F90003050204908814FF4285048814FF42C507C
:102FA00088814FF4487008804FF4F07048801AE030
:102FB0001848808841F6631188420DD12C201549AC
:102FC00008812A2048812B2088814FF4487008808E
:102FD0004FF4F070488006E022200E49088121203D
:102FE0004881202088810B48808846F60401884269
:102FF00005D00848808845F21031884206D14FF448
:10300000F070044908804FF4A0704880002003F05D
:10301000F5FD10BD980B00202DE9FF4F84B08146CF
:103020008A460020039002900698A0EB09050798B5
:10303000A0EB0A06CDF80490CDF800A0002D01DD2C
:10304000012705E00DB9002702E04FF0FF376D4280
:10305000002E02DD4FF0010806E016B94FF000081F
:1030600002E04FF0FF387642B54201DD2C4600E029
:1030700034464FF0000B21E0009A91B2019A90B2D1
:1030800000F022F8039828440390029830440290FC
:103090000398A04205DD0398001B03900198384473
:1030A00001900298A04205DD0298001B0290009852
:1030B000404400900BF101001FFA80FB601C834527
:1030C000DADD08B0BDE8F08F30B504460D4629467C
:1030D000204603F009FF06F00BF802480088024979
:1030E000088030BDC40200200008006CF0B5044622
:1030F0000D4616461F462B46324629462046FFF708
:103100008BFF3B46224629462046FFF785FF3B467C
:10311000324639462046FFF77FFF3B463246294676
:103120003046FFF779FFF0BD2DE9F04306460F4624
:103130009046002445460320A0EB48093CE07A1B5A
:1031400091B2321990B2FFF7BFFF3A1B91B27219D8
:1031500090B2FFF7B9FF3A1991B2721990B2FFF726
:10316000B3FF7A1991B2321990B2FFF7ADFF7A1915
:1031700091B2321B90B2FFF7A7FF3A1991B2721BBE
:1031800090B2FFF7A1FF7A1B91B2321B90B2FFF70A
:103190009BFF3A1B91B2721B90B2FFF795FF641C24
:1031A000B9F1000F03DAA000801D814404E0601B28
:1031B00080000A3081446D1EAC42C0DDBDE8F08362
:1031C00030B503460C4615465A48808849F24131CD
:1031D000884205D05748808845F21031884214D182
:1031E0005449488905F07EFF181205F075FFD8B2E2
:1031F00005F072FF4F49888905F074FF201205F031
:103200006BFFE0B205F068FF8CE04A48808845F229
:103210001051884220D14749488905F063FF1812B0
:1032200005F05AFF43494989491C88B205F05AFF05
:10323000D8B205F051FF3F49888905F053FF2012AD
:1032400005F04AFF3B498989491C88B205F04AFFCD
:10325000E0B205F041FF65E03648808841F6631131
:10326000884228D13348807920B932480088401EEE
:10327000C01A83B22F49488905F034FF181205F0AF
:103280002BFFD8B205F028FF181205F025FFD8B2A1
:1032900005F022FF2749888905F024FF201205F058
:1032A0001BFFE0B205F018FF201205F015FFE0B299
:1032B00005F012FF36E01F48808846F60401884278
:1032C0001DD11C488079012804D11A480088401E6D
:1032D000C01A83B21749488905F004FF181205F097
:1032E000FBFED8B205F0F8FE1249888905F0FAFE17
:1032F000201205F0F1FEE0B205F0EEFE12E00D48FE
:103300008079012804D10B480088401EC01A83B27E
:1033100008494889194605F0F5FE0649888921467D
:1033200005F0F0FE0348008903490880881C0580E9
:1033300030BD0000980B0020FE07006C2DE9FC4F0B
:1033400005460E4617469846DDF82C900020019061
:103350002748808846F60401884229D1244880798C
:10336000012825D1AB46354621480088C01B401EA8
:1033700086B247461E480088A0EB0B00401E1FFA8D
:1033800080F800201A4988712A2048812B208881E2
:1033900043463A4631462846CDF80090FFF7CEFF27
:1033A0000120134988712B2048812A2088811CE044
:1033B000781B401C80B20190344614E02146284618
:1033C00003F092FD05F094FE4FF0000A06E0094874
:1033D000A0F800900AF101001FFA80FA01988245D6
:1033E000F5DB601C84B24445E8DDBDE8FC8F0000DD
:1033F000980B00200008006C00B59FB00121080266
:1034000007F01EFF01214FF4B47007F039FF0120CF
:10341000ADF8780010208DF87B0003208DF87A003D
:103420001EA9FE48FFF742F94CF23370ADF8780060
:1034300018208DF87B0003208DF87A001EA9F8482B
:10344000FFF734F94FF68070ADF8780018208DF84A
:103450007B0003208DF87A001EA9F248FFF726F9B9
:1034600041F20100ADF8780018208DF87B000320B0
:103470008DF87A001EA9EC48FFF718F90120089092
:10348000002009900F200A9000200B900C900D90C6
:103490000E9001900290032003900020049005906C
:1034A0000690079006200F90002010901190102099
:1034B00012900020139015901490169017904FF4CE
:1034C00080501890002019904FF480401A900020EE
:1034D0001B9008A81C9001A81D900FA8FFF752F898
:1034E00001210620FFF734F832200CF02DF80020DF
:1034F00003F04EFBCD49888008468088FF280ADB10
:10350000084680884FF6FF71884204D0C7488088FB
:10351000B0F5134F7ED1D32005F0E4FD03F02EFB70
:10352000C249888003F02AFBC049888003F026FB4B
:10353000BE498880084680884FF6FF7101EA002066
:10354000BA49888003F01AFBB84989880843B7490B
:1035500088800846808849F2413188425AD0BF208D
:1035600005F0C0FD03F00AFBB049888003F006FBBC
:10357000AE49888003F002FBAC49888003F0FEFA74
:10358000AA498880084680884FF6FF7101EA00202A
:10359000A649888003F0F2FAA44989880843A34920
:1035A00088800846808846F6040188427AD0D42074
:1035B00005F098FD03F0E2FA9C49888003F0DEFAFA
:1035C0009A49888003F0DAFA98498880084680880A
:1035D0004FF6FF7101EA00209449888003F0CEFA8B
:1035E000924989880843914988800846808845F235
:1035F0001031884256D04FF45A4005F073FD03F065
:10360000BDFA8A4988804FF45B4005F06BFD03F0FA
:10361000B5FA00E046E085498880084680884FF684
:10362000FF7101EA0020814988804FF45C4005F079
:1036300059FD03F0A3FA7D49898808437B498880B6
:1036400008468088B0F5004F02D145F210508880BE
:103650007648808845F21051884223D0A12005F099
:1036600041FD03F08BFA7149888003F087FA6F49B6
:103670008880084680884FF6FF7101EA00206B4978
:10368000888003F07BFA6949898808436749888004
:103690000846808845F26171884203D141F6631083
:1036A000624988806148818861A00AF0F9FC5F481E
:1036B000808849F2413188427ED1CF2005F012FD49
:1036C000002005F009FDC12005F006FD302005F0C1
:1036D00003FDED2005F006FD642005F0FDFC032050
:1036E00005F0FAFC122005F0F7FC812005F0F4FC4F
:1036F000E82005F0F7FC852005F0EEFC102005F031
:10370000EBFC7A2005F0E8FCCB2005F0EBFC39203F
:1037100005F0E2FC2C2005F0DFFC002005F0DCFCCD
:10372000342005F0D9FC022005F0D6FCF72005F086
:10373000D9FC202005F0D0FCEA2005F0D3FC0020C5
:1037400005F0CAFC002005F0C7FCC02005F0CAFC4B
:103750001B2005F0C1FCC12005F0C4FC012005F0D0
:10376000BBFCC52005F0BEFC302005F0B5FC3020C8
:1037700005F0B2FCC72005F0B5FCB72005F0ACFCA5
:10378000362005F0AFFC482005F0A6FC3A2005F0F5
:10379000A9FC552005F0A0FCB12005F0A3FC0020F9
:1037A00005F09AFC1A2005F097FCB62005F09AFC6B
:1037B0000A2005F091FC00E0AAE0A22005F08CFCB4
:1037C000F22005F08FFC002005F086FC262005F095
:1037D00089FC012005F080FCE02005F083FC0F202F
:1037E00005F07AFC2A2005F077FC282005F074FC0F
:1037F000082005F071FC0E2005F06EFC082005F095
:103800006BFC542005F068FCA92005F065FC432002
:1038100005F062FC0A2005F05FFC11E0000C01409D
:10382000001401400018014000200140980B0020C6
:10383000204C43442049443A25780D0A00000000FA
:103840000F2005F049FC002005F046FC002005F0A3
:1038500043FC002005F040FC002005F03DFCE12089
:1038600005F040FC002005F037FC152005F034FC85
:10387000172005F031FC072005F02EFC112005F083
:103880002BFC062005F028FC2B2005F025FC5620FB
:1038900005F022FC3C2005F01FFC052005F01CFC77
:1038A000102005F019FC0F2005F016FC3F2005F054
:1038B00013FC3F2005F010FC0F2005F00DFC2B2021
:1038C00005F010FC002005F007FC002005F004FCCA
:1038D000012005F001FC3F2005F0FEFB2A2005F049
:1038E00001FC002005F0F8FB002005F0F5FB0020AE
:1038F00005F0F2FBEF2005F0EFFB112005F0F2FBE5
:1039000078200BF021FE292005F0ECFB03F01AB91A
:10391000FE48808846F6040188427CD1112005F0DB
:10392000E1FB14200BF010FED02005F0DBFB07209C
:1039300005F0D2FB422005F0CFFB1D2005F0CCFBAB
:10394000D12005F0CFFB002005F0C6FB1A2005F0C2
:10395000C3FB092005F0C0FBD22005F0C3FB01200A
:1039600005F0BAFB222005F0B7FBC02005F0BAFB3A
:10397000102005F0B1FB3B2005F0AEFB002005F068
:10398000ABFB022005F0A8FB112005F0A5FBC5202C
:1039900005F0A8FB032005F09FFBC82005F0A2FB63
:1039A000002005F099FB252005F096FB212005F06D
:1039B00093FB052005F090FB002005F08DFB0A200D
:1039C00005F08AFB652005F087FB252005F084FBC8
:1039D000772005F081FB502005F07EFB0F2005F0DD
:1039E0007BFB002005F078FBF82005F07BFB012035
:1039F00005F072FBFE2005F075FB002005F06CFB66
:103A0000022005F069FB202005F06CFB362005F054
:103A100069FB082000E02CE005F05EFB3A2005F091
:103A200061FB552005F058FB2B2005F05BFB0020C7
:103A300005F052FB002005F04FFB012005F04CFB88
:103A40003F2005F049FB2A2005F04CFB002005F043
:103A500043FB002005F040FB012005F03DFBDF208B
:103A600005F03AFB78200BF06FFD292005F03AFBBA
:103A70004CE7A648808845F21031884240F07C87A8
:103A8000ED2005F02FFB012005F026FBFE2005F0C0
:103A900023FBEE2005F026FBDE2005F01DFB212098
:103AA00005F01AFBF12005F01DFB012005F014FBC9
:103AB000DF2005F017FB102005F00EFBC42005F0F9
:103AC00011FB8F2005F008FBC62005F00BFB002042
:103AD00005F002FBE22005F0FFFAE22005F0FCFA17
:103AE000E22005F0F9FABF2005F0FCFAAA2005F063
:103AF000F3FAB02005F0F6FA0D2005F0EDFA0020FB
:103B000005F0EAFA0D2005F0E7FA002005F0E4FAE6
:103B1000112005F0E1FA002005F0DEFA192005F089
:103B2000DBFA002005F0D8FA212005F0D5FA0020B4
:103B300005F0D2FA2D2005F0CFFA002005F0CCFADE
:103B40003D2005F0C9FA002005F0C6FA5D2005F019
:103B5000C3FA002005F0C0FA5D2005F0BDFA002090
:103B600005F0BAFAB12005F0BDFA802005F0B4FAEC
:103B7000002005F0B1FA8B2005F0AEFA002005F028
:103B8000ABFA962005F0A8FA002005F0A5FAB220BD
:103B900005F0A8FA002005F09FFA002005F09CFA35
:103BA000022005F099FA002005F096FA032005F0AE
:103BB00093FA002005F090FAB32005F093FA002064
:103BC00005F08AFA002005F087FA002005F084FA53
:103BD000002005F081FA002005F07EFA002005F0B3
:103BE0007BFA002005F078FA002005F075FA002035
:103BF00005F072FA002005F06FFA002005F06CFA6B
:103C0000002005F069FA002005F066FA002005F0B2
:103C100063FA002005F060FA002005F05DFA00204C
:103C200005F05AFA002005F057FA002005F054FA82
:103C3000002005F051FA002005F04EFA002005F0B2
:103C40004BFA002005F048FA002005F045FAB420B0
:103C500005F048FA8B2005F03FFA002005F03CFA09
:103C6000962005F039FA002005F036FAA12005F07B
:103C700033FA002005F030FAB52005F033FA0220BF
:103C800005F02AFA002005F027FA032005F024FAAF
:103C9000002005F021FA042005F01EFA002005F0AE
:103CA0001BFAB62005F01EFA002005F015FA0020D8
:103CB00005F012FAB72005F015FA002005F00CFA0D
:103CC000002005F009FA3F2005F006FA002005F073
:103CD00003FA5E2005F000FA002005F0FDF96420EB
:103CE00005F0FAF9002005F0F7F98C2005F0F4F959
:103CF000002005F0F1F9AC2005F0EEF9002005F008
:103D0000EBF9DC2005F0E8F9002001E0980B002039
:103D100005F0E2F9702005F0DFF9002005F0DCF98C
:103D2000902005F0D9F9002005F0D6F9EB2005F038
:103D3000D3F9002005F0D0F9DC2005F0CDF9002002
:103D400005F0CAF9B82005F0CDF9002005F0C4F956
:103D5000002005F0C1F9002005F0BEF9002005F0B3
:103D6000BBF9002005F0B8F9002005F0B5F90020F6
:103D700005F0B2F9002005F0AFF9BA2005F0B2F96C
:103D8000242005F0A9F9002005F0A6F9002005F08F
:103D9000A3F9002005F0A0F9C12005F0A3F9202027
:103DA00005F09AF9002005F097F9542005F094F9F0
:103DB000002005F091F9FF2005F08EF9002005F0B4
:103DC0008BF9C22005F08EF90A2005F085F9002054
:103DD00005F082F9042005F07FF9002005F07CF958
:103DE000C32005F07FF93C2005F076F9002005F0AE
:103DF00073F93A2005F070F9002005F06DF93920CB
:103E000005F06AF9002005F067F9372005F064F93C
:103E1000002005F061F93C2005F05EF9002005F076
:103E20005BF9362005F058F9002005F055F93220ED
:103E300005F052F9002005F04FF92F2005F04CF95C
:103E4000002005F049F92C2005F046F9002005F086
:103E500043F9292005F040F9002005F03DF926201E
:103E600005F03AF9002005F037F9242005F034F97F
:103E7000002005F031F9242005F02EF9002005F08E
:103E80002BF9232005F028F9002005F025F93C2026
:103E900005F022F9002005F01FF9362005F01CF985
:103EA000002005F019F9322005F016F9002005F080
:103EB00013F92F2005F010F9002005F00DF92C2042
:103EC00005F00AF9002005F007F9292005F004F9AA
:103ED000002005F001F9262005F0FEF8002005F08D
:103EE000FBF8242005F0F8F8002005F0F5F8242070
:103EF00005F0F2F8002005F0EFF8232005F0ECF8CB
:103F0000002005F0E9F8C42005F0ECF8622005F087
:103F1000E3F8002005F0E0F8052005F0DDF80020CA
:103F200005F0DAF8842005F0D7F8002005F0D4F881
:103F3000F02005F0D1F8002005F0CEF8182005F0AB
:103F4000CBF8002005F0C8F8A42005F0C5F8002043
:103F500005F0C2F8182005F0BFF8002005F0BCF805
:103F6000502005F0B9F8002005F0B6F80C2005F057
:103F7000B3F8002005F0B0F8172005F0ADF80020E8
:103F800005F0AAF8952005F0A7F8002005F0A4F8A0
:103F9000F32005F0A1F8002005F09EF8E62005F0DA
:103FA0009BF8002005F098F8C52005F09BF832201A
:103FB00005F092F8002005F08FF8442005F08CF809
:103FC000002005F089F8652005F086F8002005F04E
:103FD00083F8762005F080F8002005F07DF8882031
:103FE00005F07AF8002005F077F8C62005F07AF899
:103FF000202005F071F8002005F06EF8172005F07C
:104000006BF8002005F068F8012005F065F8002045
:1040100005F062F8C72005F065F8002005F05CF8AF
:10402000002005F059F8002005F056F8002005F0B2
:1040300053F8C82005F056F8002005F04DF8002090
:1040400005F04AF8002005F047F8002005F044F894
:10405000C92005F047F8002005F03EF8002005F0E3
:104060003BF8002005F038F8002005F035F8002076
:1040700005F032F8002005F02FF8002005F02CF8AC
:10408000002005F029F8002005F026F8002005F0B2
:1040900023F8002005F020F8002005F01DF800208E
:1040A00005F01AF8002005F017F8002005F014F8C4
:1040B000002005F011F8E02005F014F8162005F0B6
:1040C0000BF8002005F008F81C2005F005F800208A
:1040D00005F002F8212004F0FFFF002004F0FCFFAF
:1040E000362004F0F9FF002004F0F6FF462004F02B
:1040F000F3FF002004F0F0FF522004F0EDFF002059
:1041000004F0EAFF642004F0E7FF002004F0E4FF7D
:104110007A2004F0E1FF002004F0DEFF8B2004F0A1
:10412000DBFF002004F0D8FF992004F0D5FF002029
:1041300004F0D2FFA82004F0CFFF002004F0CCFF51
:10414000B92004F0C9FF002004F0C6FFC42004F029
:10415000C3FF002004F0C0FFCA2004F0BDFF002010
:1041600004F0BAFFD22004F0B7FF002004F0B4FF3F
:10417000D92004F0B1FF002004F0AEFFE02004F0ED
:10418000ABFF002004F0A8FFF32004F0A5FF0020FF
:1041900004F0A2FFE12004F0A5FF162004F09CFF2C
:1041A000002004F099FF1C2004F096FF002004F08A
:1041B00093FF222004F090FF002004F08DFF3620B2
:1041C00004F08AFF002004F087FF452004F084FFFC
:1041D000002004F081FF522004F07EFF002004F054
:1041E0007BFF642004F078FF002004F075FF7A2044
:1041F00004F072FF002004F06FFF8B2004F06CFFCE
:10420000002004F069FF992004F066FF002004F00C
:1042100063FFA82004F060FF002004F05DFFB920D8
:1042200004F05AFF002004F057FFC42004F054FFAC
:10423000002004F051FFCA2004F04EFF002004F0DB
:104240004BFFD22004F048FF002004F045FFD820A7
:1042500004F042FF002004F03FFFE02004F03CFFA8
:10426000002004F039FFF32004F036FF002004F0B2
:1042700033FFE22004F036FF052004F02DFF00207C
:1042800004F02AFF0B2004F027FF002004F024FF95
:104290001B2004F021FF002004F01EFF342004F056
:1042A0001BFF002004F018FF442004F015FF00203D
:1042B00004F012FF4F2004F00FFF002004F00CFF69
:1042C000612004F009FF002004F006FF792004F0CB
:1042D00003FF002004F000FF882004F0FDFE002012
:1042E00004F0FAFE972004F0F7FE002004F0F4FE3C
:1042F000A62004F0F1FE002004F0EEFEB72004F04A
:10430000EBFE002004F0E8FEC22004F0E5FE0020F1
:1043100004F0E2FEC72004F0DFFE002004F0DCFE23
:10432000D12004F0D9FE002004F0D6FED62004F0FF
:10433000D3FE002004F0D0FEDD2004F0CDFE0020EE
:1043400004F0CAFEF32004F0C7FE002004F0C4FE0F
:10435000E32004F0C7FE052004F0BEFE002004F0B8
:10436000BBFE0A2004F0B8FE002004F0B5FE1C20BD
:1043700004F0B2FE002004F0AFFE332004F0ACFEE7
:10438000002004F0A9FE442004F0A6FE002004F062
:10439000A3FE502004F0A0FE002004F09DFE622049
:1043A00004F09AFE002004F097FE782004F094FEBA
:1043B000002004F091FE882004F08EFE002004F01E
:1043C0008BFE972004F088FE002004F085FEA620D6
:1043D00004F082FE002004F07FFEB72004F07CFE93
:1043E000002004F079FEC22004F076FE002004F0E4
:1043F00073FEC72004F070FE002004F06DFED12093
:1044000004F06AFE002004F067FED52004F064FE8C
:10441000002004F061FEDD2004F05EFE002004F0C8
:104420005BFEF32004F058FE002004F055FEE4206B
:1044300004F058FE012004F04FFE002004F04CFE72
:10444000012004F049FE002004F046FE022004F0A2
:1044500043FE002004F040FE2A2004F03DFE002030
:1044600004F03AFE3C2004F037FE002004F034FE55
:104470004B2004F031FE002004F02EFE5D2004F0FD
:104480002BFE002004F028FE742004F025FE0020FE
:1044900004F022FE842004F01FFE002004F01CFE25
:1044A000932004F019FE002004F016FEA22004F070
:1044B00013FE002004F010FEB32004F00DFE0020D7
:1044C00004F00AFEBE2004F007FE002004F004FE03
:1044D000C42004F001FE002004F0FEFDCD2004F015
:1044E000FBFD002004F0F8FDD32004F0F5FD0020D2
:1044F00004F0F2FDDD2004F0EFFD002004F0ECFDFF
:10450000F32004F0E9FD002004F0E6FDE52004F0CE
:10451000E9FD002004F0E0FD002004F0DDFD0020B6
:1045200004F0DAFD002004F0D7FD022004F0D4FDF1
:10453000002004F0D1FD292004F0CEFD002004F07D
:10454000CBFD3C2004F0C8FD002004F0C5FD4B204D
:1045500004F0C2FD002004F0BFFD5D2004F0BCFDAE
:10456000002004F0B9FD742004F0B6FD002004F032
:10457000B3FD842004F0B0FD002004F0ADFD9320D5
:1045800004F0AAFD002004F0A7FDA22004F0A4FD81
:10459000002004F0A1FDB32004F09EFD002004F0F3
:1045A0009BFDBE2004F098FD002004F095FDC42082
:1045B00004F092FD002004F08FFDCD2004F08CFD6E
:1045C000002004F089FDD32004F086FD002004F0D3
:1045D00083FDDC2004F080FD002004F07DFDF3204D
:1045E00004F07AFD002004F077FDE62004F07AFD67
:1045F000112004F071FD002004F06EFD342004F061
:104600006BFD002004F068FD562004F065FD0020DD
:1046100004F062FD762004F05FFD002004F05CFDF4
:10462000772004F059FD002004F056FD662004F0C8
:1046300053FD002004F050FD882004F04DFD0020C3
:1046400004F04AFD992004F047FD002004F044FDE9
:10465000BB2004F041FD002004F03EFD992004F051
:104660003BFD002004F038FD662004F035FD0020FD
:1046700004F032FD552004F02FFD002004F02CFD45
:10468000552004F029FD002004F026FD452004F00B
:1046900023FD002004F020FD432004F01DFD002038
:1046A00004F01AFD442004F017FD002004F014FD6E
:1046B000E72004F017FD322004F00EFD002004F086
:1046C0000BFD552004F008FD002004F005FD7620C8
:1046D00004F002FD002004F0FFFC662004F0FCFC66
:1046E000002004F0F9FC672004F0F6FC002004F040
:1046F000F3FC672004F0F0FC002004F0EDFC8720C0
:1047000004F0EAFC002004F0E7FC992004F0E4FC4B
:10471000002004F0E1FCBB2004F0DEFC002004F0EB
:10472000DBFC992004F0D8FC002004F0D5FC7720B5
:1047300004F0D2FC002004F0CFFC442004F0CCFCB8
:10474000002004F0C9FC562004F0C6FC002004F050
:10475000C3FC232004F0C0FC002004F0BDFC332087
:1047600004F0BAFC002004F0B7FC452004F0B4FCCF
:10477000002004F0B1FCE82004F0B4FC002004F0B8
:10478000ABFC002004F0A8FC992004F0A5FC00205C
:1047900004F0A2FC872004F09FFC002004F09CFCA5
:1047A000882004F099FC002004F096FC772004F0A7
:1047B00093FC002004F090FC662004F08DFC0020A7
:1047C00004F08AFC882004F087FC002004F084FCBC
:1047D000AA2004F081FC002004F07EFCBB2004F041
:1047E0007BFC002004F078FC992004F075FC00208C
:1047F00004F072FC662004F06FFC002004F06CFCF6
:10480000552004F069FC002004F066FC552004F0FB
:1048100063FC002004F060FC442004F05DFC0020F8
:1048200004F05AFC442004F057FC002004F054FC2F
:10483000552004F051FC002004F04EFCE92004F067
:1048400051FCAA2004F048FC002004F045FC0020A4
:1048500004F042FC002004F03FFC002004F042FC85
:10486000AA2004F039FCCF2004F03CFC002004F026
:1048700033FC002004F030FC002004F02DFC00206C
:1048800004F02AFC002004F027FC002004F024FCA3
:10489000002004F021FC002004F01EFC002004F0A5
:1048A0001BFC002004F018FC002004F015FC002084
:1048B00004F012FC002004F00FFC002004F00CFCBB
:1048C000002004F009FC002004F006FC002004F0A5
:1048D00003FCF02004F006FC002004F0FDFB502057
:1048E00004F0FAFB002004F0F7FB002004F0F4FBD6
:1048F000002004F0F1FBF32004F0F4FB002004F0AE
:10490000EBFBF92004F0EEFB062004F0E5FB1020A1
:1049100004F0E2FB292004F0DFFB002004F0DCFBC4
:104920003A2004F0DFFB552004F0D6FB112004F000
:10493000D9FB64200AF008FE292004F0D3FB3520BF
:1049400004F0D0FB002004F0C7FB512004F0CAFBA8
:10495000FF2004F0C1FB532004F0C4FB2C2004F022
:10496000BBFB552004F0BEFB822004F0B5FB2C20DD
:1049700004F0B8FB02F0E6B8FE48808845F210511A
:1049800088427DD155214FF4704004F0BBFBAA2131
:104990004FF2010004F0B6FB52214FF2020004F086
:1049A000B1FB08214FF2030004F0ACFB01214FF2F0
:1049B000040004F0A7FB0D214FF4304004F0A2FBEB
:1049C0000D214BF2010004F09DFB0D214BF2020082
:1049D00004F098FB34214FF4364004F093FB34216B
:1049E0004BF2016004F08EFB34214BF2026004F0C4
:1049F00089FB0D214FF4314004F084FB0D214BF273
:104A0000011004F07FFB0D214BF2021004F07AFB41
:104A100034214FF4374004F075FB34214BF2017020
:104A200004F070FB34214BF2027004F06BFB0021A8
:104A30004FF4324004F066FB00214BF2012004F0F9
:104A400061FB00214BF2022004F05CFB24214FF4B7
:104A5000384004F057FB24214BF6010004F052FBD0
:104A600024214BF6020004F04DFB01214FF43F409E
:104A700004F048FB0F214FF4334004F043FB00E007
:104A8000FDE30F214BF2013004F03CFB0F214BF210
:104A9000023004F037FB34214FF4394004F032FB8C
:104AA00034214BF6011004F02DFB34214BF602109B
:104AB00004F028FB08214FF4354004F023FB0821C3
:104AC0004BF2015004F01EFB08214BF2025004F09F
:104AD00019FB03214FF4424004F014FB24214FF44E
:104AE0003A4004F00FFB24214BF6012004F00AFBAE
:104AF00024214BF6022004F005FB00214FF43C403A
:104B000004F000FB78214BF6014004F0FBFA002191
:104B10004BF6024004F0F6FA00214FF43D4004F059
:104B2000F1FA78214BF6015004F0ECFA00214BF633
:104B3000025004F0E7FA00214FF43E4004F0E2FA9C
:104B400064214BF6016004F0DDFA00214FF451407E
:104B500004F0D8FA33214DF2011004F0D3FA002109
:104B60004DF2021004F0CEFA34214DF2031004F09D
:104B7000C9FA00214DF2041004F0C4FA3A214DF2B2
:104B8000051004F0BFFA00214DF2061004F0BAFA45
:104B90004A214DF2071004F0B5FA00214DF2081039
:104BA00004F0B0FA5C214DF2091004F0ABFA0021D8
:104BB0004DF20A1004F0A6FA81214DF20B1004F018
:104BC000A1FA00214DF20C1004F09CFAA6214DF23E
:104BD0000D1004F097FA00214DF20E1004F092FA35
:104BE000E5214DF20F1004F08DFA01214DF2101065
:104BF00004F088FA13214DF2111004F083FA012118
:104C00004DF2121004F07EFA54214DF2131004F00C
:104C100079FA01214DF2141004F074FA82214DF258
:104C2000151004F06FFA01214DF2161004F06AFA23
:104C3000CA214DF2171004F065FA02214DF2181046
:104C400004F060FA00214DF2191004F05BFA022121
:104C50004DF21A1004F056FA01214DF21B1004F027
:104C600051FA02214DF21C1004F04CFA34214DF29D
:104C70001D1004F047FA02214DF21E1004F042FA12
:104C800067214DF21F1004F03DFA02214DF2201071
:104C900004F038FA84214DF2211004F033FA022195
:104CA0004DF2221004F02EFAA4214DF2231004F04C
:104CB00029FA02214DF2241004F024FAB7214DF212
:104CC000251004F01FFA02214DF2261004F01AFA02
:104CD000CF214DF2271004F015FA02214DF22810D1
:104CE00004F010FADE214DF2291004F00BFA022133
:104CF0004DF22A1004F006FAF2214DF22B1004F0C6
:104D000001FA02214DF22C1004F0FCF9FE214DF2C3
:104D10002D1004F0F7F903214DF22E1004F0F2F9F2
:104D200010214DF22F1004F0EDF903214DF2301057
:104D300004F0E8F933214DF2311004F0E3F90321D6
:104D40004DF2321004F0DEF96D214DF2331004F013
:104D5000D9F900214FF4524004F0D4F933214DF237
:104D6000012004F0CFF900214DF2022004F0CAF92D
:104D7000342101E0980B00204DF2032004F0C2F929
:104D800000214DF2042004F0BDF93A214DF2052036
:104D900004F0B8F900214DF2062004F0B3F94A21DD
:104DA0004DF2072004F0AEF900214DF2082004F086
:104DB000A9F95C214DF2092004F0A4F900214DF27B
:104DC0000A2004F09FF981214DF20B2004F09AF99A
:104DD00000214DF20C2004F095F9A6214DF20D2092
:104DE00004F090F900214DF20E2004F08BF9E5213A
:104DF0004DF20F2004F086F901214DF2102004F04D
:104E000081F913214DF2112004F07CF901214DF2BA
:104E1000122004F077F954214DF2132004F072F9B6
:104E200001214DF2142004F06DF982214DF215207C
:104E300004F068F901214DF2162004F063F9CA214B
:104E40004DF2172004F05EF902214DF2182004F013
:104E500059F900214DF2192004F054F902214DF2C4
:104E60001A2004F04FF901214DF21B2004F04AF9F9
:104E700002214DF21C2004F045F934214DF21D2091
:104E800004F040F902214DF21E2004F03BF96721A5
:104E90004DF21F2004F036F902214DF2202004F0DB
:104EA00031F984214DF2212004F02CF902214DF238
:104EB000222004F027F9A4214DF2232004F022F946
:104EC00002214DF2242004F01DF9B7214DF22520D6
:104ED00004F018F902214DF2262004F013F9CF2135
:104EE0004DF2272004F00EF902214DF2282004F0A3
:104EF00009F9DE214DF2292004F004F902214DF2D6
:104F00002A2004F0FFF8F2214DF22B2004F0FAF8E9
:104F100002214DF22C2004F0F5F8FE214DF22D2057
:104F200004F0F0F803214DF22E2004F0EBF81021EC
:104F30004DF22F2004F0E6F803214DF2302004F06A
:104F4000E1F833214DF2312004F0DCF803214DF279
:104F5000322004F0D7F86D214DF2332004F0D2F85E
:104F600000214FF4534004F0CDF833214DF20130CD
:104F700004F0C8F800214DF2023004F0C3F83421E7
:104F80004DF2033004F0BEF800214DF2043004F07D
:104F9000B9F83A214DF2053004F0B4F800214DF291
:104FA000063004F0AFF84A214DF2073004F0AAF8B9
:104FB00000214DF2083004F0A5F85C214DF20930D3
:104FC00004F0A0F800214DF20A3004F09BF8812192
:104FD0004DF20B3004F096F800214DF20C3004F045
:104FE00091F8A6214DF20D3004F08CF800214DF21D
:104FF0000E3004F087F8E5214DF20F3004F082F80E
:1050000001214DF2103004F07DF813214DF21130E2
:1050100004F078F801214DF2123004F073F85421B5
:105020004DF2133004F06EF801214DF2143004F00B
:1050300069F882214DF2153004F064F801214DF237
:10504000163004F05FF8CA214DF2173004F05AF818
:1050500002214DF2183004F055F800214DF21930BC
:1050600004F050F802214DF21A3004F04BF80121FF
:105070004DF21B3004F046F802214DF21C3004F0D2
:1050800041F834214DF21D3004F03CF802214DF27C
:105090001E3004F037F867214DF21F3004F032F86B
:1050A00002214DF2203004F02DF884214DF2213000
:1050B00004F028F802214DF2223004F023F8A42154
:1050C0004DF2233004F01EF802214DF2243004F09A
:1050D00019F8B7214DF2253004F014F802214DF2F1
:1050E000263004F00FF8CF214DF2273004F00AF8F3
:1050F00002214DF2283004F005F8DE214DF229306E
:1051000004F000F802214DF22A3003F0FBFFF221F7
:105110004DF22B3003F0F6FF02214DF22C3003F05C
:10512000F1FFFE214DF22D3003F0ECFF03214DF293
:105130002E3003F0E7FF10214DF22F3003F0E2FF95
:1051400003214DF2303003F0DDFF33214DF23130D9
:1051500003F0D8FF03214DF2323003F0D3FF6D216D
:105160004DF2333003F0CEFF00214FF4544003F0F2
:10517000C9FF33214DF2014003F0C4FF00214DF27D
:10518000024003F0BFFF34214DF2034003F0BAFFA9
:1051900000214DF2044003F0B5FF3A214DF20540E5
:1051A00003F0B0FF00214DF2064003F0ABFF4A21AF
:1051B0004DF2074003F0A6FF00214DF2084003F036
:1051C000A1FF5C214DF2094003F09CFF00214DF24C
:1051D0000A4003F097FF81214DF20B4003F092FF4C
:1051E00000214DF20C4003F08DFFA6214DF20D4041
:1051F00003F088FF00214DF20E4003F083FFE5210C
:105200004DF20F4003F07EFF01214DF2104003F0FC
:1052100079FF13214DF2114003F074FF01214DF28B
:10522000124003F06FFF54214DF2134003F06AFF68
:1052300001214DF2144003F065FF82214DF215402B
:1052400003F060FF01214DF2164003F05BFFCA211D
:105250004DF2174003F056FF02214DF2184003F0C3
:1052600051FF00214DF2194003F04CFF02214DF295
:105270001A4003F047FF01214DF21B4000E006E316
:1052800003F040FF02214DF21C4003F03BFF3421AC
:105290004DF21D4003F036FF02214DF21E4003F097
:1052A00031FF67214DF21F4003F02CFF02214DF228
:1052B000204003F027FF84214DF2214003F022FF1C
:1052C00002214DF2224003F01DFFA4214DF22340A4
:1052D00003F018FF02214DF2244003F013FFB72121
:1052E0004DF2254003F00EFF02214DF2264003F05F
:1052F00009FFCF214DF2274003F004FF02214DF2B8
:10530000284003F0FFFEDE214DF2294003F0FAFEB3
:1053100002214DF22A4003F0F5FEF2214DF22B401E
:1053200003F0F0FE02214DF22C4003F0EBFEFE21D3
:105330004DF22D4003F0E6FE03214DF22E4003F026
:10534000E1FE10214DF22F4003F0DCFE03214DF26F
:10535000304003F0D7FE33214DF2314003F0D2FE4E
:1053600003214DF2324003F0CDFE6D214DF233406A
:1053700003F0C8FE00214FF4554003F0C3FE332173
:105380004DF2015003F0BEFE00214DF2025003F039
:10539000B9FE34214DF2035003F0B4FE00214DF26A
:1053A000045003F0AFFE3A214DF2055003F0AAFE7F
:1053B00000214DF2065003F0A5FE4A214DF20750A0
:1053C00003F0A0FE00214DF2085003F09BFE5C218B
:1053D0004DF2095003F096FE00214DF20A5003F001
:1053E00091FE81214DF20B5003F08CFE00214DF215
:1053F0000C5003F087FEA6214DF20D5003F082FE03
:1054000000214DF20E5003F07DFEE5214DF20F50CC
:1054100003F078FE01214DF2105003F073FE1321CA
:105420004DF2115003F06EFE01214DF2125003F0C7
:1054300069FE54214DF2135003F064FE01214DF238
:10544000145003F05FFE82214DF2155003F05AFE16
:1054500001214DF2165003F055FECA214DF21750AE
:1054600003F050FE02214DF2185003F04BFE0021D4
:105470004DF2195003F046FE02214DF21A5003F08E
:1054800041FE01214DF21B5003F03CFE02214DF282
:105490001C5003F037FE34214DF21D5003F032FE54
:1054A00002214DF21E5003F02DFE67214DF21F50D8
:1054B00003F028FE02214DF2205003F023FE842148
:1054C0004DF2215003F01EFE02214DF2225003F056
:1054D00019FEA4214DF2235003F014FE02214DF2D7
:1054E000245003F00FFEB7214DF2255003F00AFEC1
:1054F00002214DF2265003F005FECF214DF2275038
:1055000003F000FE02214DF2285003F0FBFDDE21E6
:105510004DF2295003F0F6FD02214DF22A5003F01E
:10552000F1FDF2214DF22B5003F0ECFD02214DF282
:105530002C5003F0E7FDFE214DF22D5003F0E2FD6B
:1055400003214DF22E5003F0DDFD10214DF22F50BE
:1055500003F0D8FD03214DF2305003F0D3FD332189
:105560004DF2315003F0CEFD03214DF2325003F0E5
:10557000C9FD6D214DF2335003F0C4FD00214FF4FD
:10558000564003F0BFFD33214DF2016003F0BAFD38
:1055900000214DF2026003F0B5FD34214DF20360AD
:1055A00003F0B0FD00214DF2046003F0ABFD3A21A1
:1055B0004DF2056003F0A6FD00214DF2066003F0F8
:1055C000A1FD4A214DF2076003F09CFD00214DF240
:1055D000086003F097FD5C214DF2096003F092FD35
:1055E00000214DF20A6003F08DFD81214DF20B6028
:1055F00003F088FD00214DF20C6003F083FDA6212D
:105600004DF20D6003F07EFD00214DF20E6003F0BF
:1056100079FDE5214DF20F6003F074FD01214DF29B
:10562000106003F06FFD13214DF2116003F06AFD6D
:1056300001214DF2126003F065FD54214DF213601B
:1056400003F060FD01214DF2146003F05BFD822147
:105650004DF2156003F056FD01214DF2166003F086
:1056600051FDCA214DF2176003F04CFD02214DF2AD
:10567000186003F047FD00214DF2196003F042FD70
:1056800002214DF21A6003F03DFD01214DF21B6035
:1056900003F038FD02214DF21C6003F033FD34218C
:1056A0004DF21D6003F02EFD02214DF21E6003F04D
:1056B00029FD67214DF21F6003F024FD02214DF208
:1056C000206003F01FFD84214DF2216003F01AFDDC
:1056D00002214DF2226003F015FDA4214DF223605A
:1056E00003F010FD02214DF2246003F00BFDB72101
:1056F0004DF2256003F006FD02214DF2266003F015
:1057000001FDCF214DF2276003F0FCFC02214DF298
:10571000286003F0F7FCDE214DF2296003F0F2FC73
:1057200002214DF22A6003F0EDFCF2214DF22B60D4
:1057300003F0E8FC02214DF22C6003F0E3FCFE21B3
:105740004DF22D6003F0DEFC03214DF22E6003F0DC
:10575000D9FC10214DF22F6003F0D4FC03214DF24F
:10576000306003F0CFFC33214DF2316003F0CAFC0E
:1057700003214DF2326003F0C5FC6D214DF2336020
:1057800003F0C0FC55214FF4704003F0BBFCAA218C
:105790004FF2010003F0B6FC52214FF2020003F079
:1057A000B1FC08214FF2030003F0ACFC00214FF2E2
:1057B000040003F0A7FCCC214FF4314003F0A2FC1D
:1057C00000214BF2011003F09DFC05214FF43640FF
:1057D00003F098FC70214FF4374003F093FC7021E4
:1057E0004BF2017003F08EFC01214FF4384003F0BE
:1057F00089FC03214BF6010003F084FC03214BF6E6
:10580000020003F07FFC03214BF6030003F07AFC57
:1058100002214FF43C4003F075FC00214BF601409F
:1058200003F070FC00214BF6024003F06BFCD0212A
:105830004FF4494003F066FC02214CF6011003F0DE
:1058400061FC50214CF6021003F05CFC50214CF638
:10585000031003F057FC50214CF6041003F052FCE7
:1058600000214FF4545003F04DFC55214FF4685083
:1058700003F048FC4FF4885003F034FC782009F022
:1058800089FE4FF4245003F02DFC01F05BB9FE4873
:10589000808849F2253188427ED147F6F001E52023
:1058A00003F030FC4FF48071012003F02BFC4FF427
:1058B000E061022003F026FC41F23001032003F0F6
:1058C00021FC0021042003F01DFC40F202210820ED
:1058D00003F018FC0021092003F014FC00210A2029
:1058E00003F010FC00210C2003F00CFC00210D2023
:1058F00003F008FC00210F2003F004FC002110201D
:1059000003F000FC0721112003F0FCFB0021122012
:1059100003F0F8FB0021132003F0F4FB0021072023
:1059200003F0F0FB41F29061102003F0EBFB40F23A
:105930002721112003F0E6FB9D21122003F0E2FB5A
:105940004FF4C851132003F0DDFB2521292003F07B
:10595000D9FB0D212B2003F0D5FB0721302003F0CC
:10596000D1FB40F20331312003F0CCFB0321322084
:1059700003F0C8FB40F20621352003F0C3FB0821E9
:10598000362003F0BFFB40F20641372003F0BAFB9C
:105990004FF44171382000E057E003F0B3FB0721DA
:1059A000392003F0AFFB40F202613C2003F0AAFB78
:1059B00008213D2003F0A6FB0021502003F0A2FBAC
:1059C000EF21512003F09EFB0021522003F09AFBAF
:1059D00040F23F11532003F095FB4FF42741602024
:1059E00003F090FB0121612003F08CFB00216A2071
:1059F00003F088FB0021802003F084FB002181203C
:105A000003F080FB0021822003F07CFB0021832037
:105A100003F078FB0021842003F074FB0021852033
:105A200003F070FB1021902003F06CFB4FF4C06179
:105A3000922003F067FB40F23311072003F062FB72
:105A40002221002003F05EFB1FE78F48808849F287
:105A5000283188427ED141F28F01EC2003F052FBC5
:105A600041F23421EF2003F04DFB4FF4807101200F
:105A700003F048FB4FF4E061022003F043FB41F2E6
:105A80003001032003F03EFB0021042003F03AFB29
:105A900040F20221082003F035FB0021092003F029
:105AA00031FB00210A2003F02DFB01210C2003F023
:105AB00029FB00210D2003F025FB00210F2003F01E
:105AC00021FB0021102003F01DFB0721112003F012
:105AD00019FB0021122003F015FB0021132003F015
